:020000040800F2
:10000000A0050020D5000008F923000823200008DF
:1000100000000000000000000000000000000000E0
:10002000000000000000000000000000FF230008A6
:100030000000000000000000FD230008012400086B
:100040000501000805010008050100080501000878
:100050000501000805010008050100080501000868
:100060000000000005010008D10200080501000899
:100070000501000805010008000000000501000856
:100080000000000000000000000000000000000070
:10009000A524000800000000000000000501000881
:1000A0000000000005010008000000000000000042
:1000B000050100084D2100080000000000000000BC
:1000C0000348854600F0ACF800480047FD2D0008C5
:1000D000A00500200C4880F308880C480168090E30
:1000E0000B4A914205D10B480B4901600B480C4962
:1000F00001600C4880470C480047FEE7FEE7FEE73A
:10010000FEE7FEE7FEE70000A00500200400000077
:100110001F000000341002400100000000000140F8
:1001200000000000A1240008C100000830B50B4603
:10013000014600202022012409E00D46D5409D42C1
:1001400005D31D469540491B254695404019154647
:10015000521E002DF1DC30BDF0B51FB40646002064
:1001600082B005464024019100901BE0019922468F
:100170000F46304600F042F8049A059B801A9941D8
:1001800010D310461946224600F028F8361A8F413F
:100190000197224601200021009F00F01FF8381827
:1001A0004D4100902046641E0028DFDC019B009832
:1001B0002946324607B0F0BDD2B201E00270401CC1
:1001C000491EFBD270470022F6E710B513460A46D7
:1001D00004461946FFF7F0FF204610BD10B5202A4F
:1001E00004DB0146203A9140002010BD91402023BD
:1001F0009C1A0346E3401943904010BD10B5202AD5
:1002000004DB0846203AD040002110BD0B46D34005
:10021000D0402024A21A91400843194610BD000086
:10022000064C0125064E05E0E36807CC2B430C3C49
:1002300098471034B442F7D3FFF746FF582E000812
:10024000782E000810B500F034F8FF20F53000F0EB
:100250001BF8FF20693000F079F9002000F014F855
:1002600000F018F810BD10B500F023F8FF20F530AD
:1002700000F00AF8782000F069F9002000F004F896
:1002800000F008F810BD000001490968C863704714
:100290001C01002010B500220121490205200007A1
:1002A00000F05DFA012280210520000700F057FAD6
:1002B00010BD10B5002280210520000700F04FFA84
:1002C000012251020520000700F049FA10BD00008C
:1002D00010B5024800F061F810BD0000D400002005
:1002E00072B600BFFEE7014600222520405C0228CE
:1002F00008D00420C86300BF00232420435400BF5B
:1003000001207047086800680E2398430B68186046
:1003100008680068400840000B6818601C23486C9F
:10032000184001238340086C436001232520435477
:1003300000BF00232420435400BF1046E1E770B5FE
:10034000044600252520005D022803D00420E06338
:10035000012520E0206800680E218843216808609C
:100360002068006840084000216808601C21606C1B
:10037000084001218140206C416001212520015568
:1003800000BF00212420015500BFA06B002802D02F
:100390002046A16B8847284670BD70B50446206C86
:1003A0000568206806681C20616C014004208840B4
:1003B000284000281DD004203040002819D0206893
:1003C000006820210840002805D120680068042129
:1003D0008843216808601C21606C0840042181402A
:1003E000206C4160206B00285AD02046216B884742
:1003F00056E01C20616C0140022088402840002803
:1004000025D002203040002821D02068006820211B
:100410000840002808D1206800680A218843216824
:1004200008600121252001551C21606C0840022133
:100430008140206C416000BF00212420015500BF95
:10044000E06A00282CD02046E16A884728E01C207A
:10045000616C0140082088402840002820D00820F6
:10046000304000281CD0206800680E218843216895
:1004700008601C21606C084001218140206C4160B3
:100480000120E06301212520015500BF0021242027
:10049000015500BF606B002802D02046616B884781
:1004A00070BD000070B50446002C01D1012070BD64
:1004B000244A2168881A1421FFF738FE80006064FE
:1004C000204808382064022125200155206805684D
:1004D0001D480540E168A068084321690843616937
:1004E0000843A1690843E1690843216A08430543B9
:1004F0002068056001218903A068884217D011484F
:100500007830806A1C22616C11400F228A4090432F
:100510000C49783188621C22616C11406068884007
:1005200008497831896A0843064978318862002091
:10053000E0630121252001550021242001550020E0
:10054000B5E70000080002400F80FFFF70B50446C9
:1005500000F00CF906462546681C002802D0054824
:1005600000782D1800BF00F001F9801BA842FAD3D3
:1005700070BD00004400002070B503460A4600210B
:1005800000240020D2E001268E40156835402C461C
:10059000002C79D01579AD07AD0F012D04D0157958
:1005A000AD07AD0F022D18D198684E000325B54058
:1005B0000646AE4330464E00D568B54028439860A5
:1005C000586801258D400646AE43304610265568D2
:1005D00035402D098D40284358601579AD07AD0F82
:1005E000032D0BD0D8684E000325B5400646AE4318
:1005F00030464E009568B5402843D8601579AD0760
:10060000AD0F022D15D1CD08AE001D462035A859DD
:100610004D07EE0E0F25B5400646AE4330464E0759
:10062000F60E1569B5402843CD08AD001E462036AC
:10063000705118684E000325B5400646AE4330465B
:100640001579AD07AD0F4E00B5402843186003265D
:10065000360455683540002D67D0374D6D6B012647
:100660003543354E7563354D8E08B600A8598D0754
:100670002E0F0F25B5400646AE43304605252D0703
:10068000AB4202D100250BE04FE02D4DAB4201D132
:10069000012505E02B4DAB4201D1022500E00625E6
:1006A0008E07360FB5402843244D8E08B600A8515A
:1006B000254DA8680546A5432846012636055568F8
:1006C0003540002D02D00546254328461E4DA86022
:1006D000E8680546A5432846012676055568354055
:1006E000002D02D0054625432846174DE86068686E
:1006F0000546A54328460126760455683540002D59
:1007000002D00546254328460F4D686028680546F7
:10071000A54328460126360455683540002D02D0F1
:10072000054625432846084D2860491C1568CD40DC
:10073000002D00D027E770BD0010024008000140E6
:1007400000040050000800500004014002461369F4
:100750000B40002B01D0012000E000207047002A50
:1007600001D0816100E081627047000001480068AB
:10077000704700003C00002010B50446002C01D159
:10078000012010BDE06F002805D10021782001551F
:10079000204601F0E9FB2420E0672068006840085B
:1007A000400021680860204602F0F0F8012800D1DE
:1007B000E7E7606A002802D0204601F087FF206842
:1007C00040680921C9028843216848602068806820
:1007D00022218843216888602068806808210843B6
:1007E000216888602068006801210843216808604A
:1007F000204601F0E3FFC4E7034800680349097895
:1008000040180149086070473C0000204400002067
:1008100010B50024084800684021084306490860D4
:10082000002000F00BF8002801D0012401E000F0C6
:100830002FF8204610BD00000020024070B504468D
:10084000104801787D20C000FFF770FC0646314655
:100850000D480068FFF76AFC054600F02BFE0028F3
:1008600001D0012070BD042C07D200222146501E69
:1008700000F02CF80548046001E00120F2E70020B8
:10088000F0E7000044000020480000204000002065
:100890000648406B01210843044948630846806BC1
:1008A00009040843014988637047000000100240B2
:1008B0000146002905DBCB06DB0E01229A40024BE4
:1008C0001A6000BF7047000000E100E070B5044608
:1008D0000D4616462946204602F03EFA70BD00003D
:1008E000F8B50446002720212068084020287BD145
:1008F00020680840202800D100BF7B48806B012180
:1009000009070840002805D17748806B08437649DD
:100910008863012775480068FF21013108400028DD
:1009200016D172480068084370490860FFF71EFF3F
:10093000064606E0FFF71AFF801B642801D9032052
:10094000F8BD6A480068FF21013108400028F1D055
:1009500065480568032109050D4060680840A84204
:100960000DD0091160680840884208D15E480068CF
:10097000012149040840884201D10120E0E75A489A
:10098000403000690321090408400546002D3DD090
:1009900060680840A84239D02021206808402028FB
:1009A00034D1514840300069032109048843054689
:1009B0004D48403000690121C90408434A4940318B
:1009C0000861084600690121C9048843464940314D
:1009D000086108460561801528408915884215D1AF
:1009E000FFF7C4FE064608E03DE0FFF7BFFE801BB0
:1009F0003F49884201D90320A2E73B4840300069C3
:100A0000012149020840400A0028EED02021206838
:100A1000084020281FD100BF00BF032109046068DF
:100A2000084088420AD130480068090188430322FF
:100A300012056168114008432B49086000BF2A482D
:100A400040300069032212046168114008432649BE
:100A50004031086100BF012F05D12348806B390761
:100A6000884321498863022120680840022809D16F
:100A70001D484030C0680C218843A16808431A49CA
:100A80004031C86004212068084004280AD1164873
:100A90004030C068032189028843E1680843124955
:100AA0004031C86008212068084008280AD10E4853
:100AB0004030C068032109038843216908430A497B
:100AC0004031C86080212068084080280AD106484B
:100AD0004030C068032189048843616908430249A2
:100AE0004031C86000202BE7001002400070004039
:100AF00088130000F8B504460E46002C01D10120F1
:100B0000F8BD83480068C007C00FB04218D28048C3
:100B100000684008400030437D490860FFF726FE2A
:100B2000054607E0FFF722FE401B7A49884201D9BB
:100B30000320E5E776480068C007C00FB042F1D156
:100B4000022120680840022807D17348C068F021BC
:100B50008843A16808437049C8602078C007C00F67
:100B600000284CD06068022809D16B480068012138
:100B700049040840400C002824D10120C0E76068E7
:100B8000032809D164480068012149060840400E45
:100B9000002817D10120B3E76068012808D15E481A
:100BA000006804210840800800280BD10120A7E735
:100BB00059480068012149020840400A002801D133
:100BC00001209DE75448C0688008800061680843A0
:100BD0005149C860FFF7CAFD0546606802280FD179
:100BE00007E0FFF7C3FD401B4A49884201D90320B3
:100BF00086E74948C0680C2108400828F1D134E054
:100C0000606803280FD107E0FFF7B0FD401B4149A2
:100C1000884201D9032073E73F48C0680C2108408F
:100C20000C28F1D121E0606801280FD107E0FFF71F
:100C30009DFD401B3749884201D9032060E73648B3
:100C4000C0680C2108400428F1D10EE007E0FFF74E
:100C50008DFD401B2F49884201D9032050E72E48C3
:100C6000C0680C2108400028F1D129480068C0075D
:100C7000C00FB04218D926480068400840003043F1
:100C800023490860FFF772FD054607E0FFF76EFD98
:100C9000401B2049884201D9032031E71C480068E5
:100CA000C007C00FB042F1D10421206808400428D9
:100CB00008D11948C068072109028843E168084340
:100CC0001549C860082120680840082809D1124841
:100CD000C0680721C90288432169C90008430E4939
:100CE000C86000F04BF80C49C968F02211400909AE
:100CF0000A4A515CC8400A4908600A480068FFF780
:100D00009DFD0746002F01D03846F9E60020F7E6A2
:100D1000002002408813000000100240342E00081A
:100D20004800002040000020014800687047000093
:100D30004800002000B5FFF7F7FF0549C968072202
:100D400012021140090A034A515CC84000BD00006C
:100D500000100240442E000800B5FFF7E5FF0549EA
:100D6000C9680722D2021140C90A034A515CC8402F
:100D700000BD000000100240442E0008F0B585B010
:100D80003548C06803900C2103980840002852D0D1
:100D9000042804D008280CD00C284BD10BE02E4896
:100DA000006810210840002801D02C4D00E02C4D97
:100DB0004EE02C4D4CE00F21890403980840800C34
:100DC00029490F5C0321890503980840800D441CC4
:100DD0002148C06801210904084000280BD021489F
:100DE000394601F093FF2246002301910090FFF75E
:100DF000B3F906461CE01848006810210840002896
:100E00000BD01648394601F081FF2246002301919C
:100E10000090FFF7A1F906460AE01148394601F0B3
:100E200075FF2246002301910090FFF795F90646D1
:100E300035460DE000BF08484068072149030840D7
:100E4000400B02900298401C01218140CD0300BF5D
:100E500000BF284605B0F0BD0010024000093D006B
:100E60000024F40000127A004C2E0008FEB504465F
:100E7000002C01D10120FEBDFB48C7680C210F40AA
:100E8000C06801210904084001902078C007C00F04
:100E9000002872D0082F04D00C2F0FD1019888425F
:100EA0000CD1F1480068012149040840400C002899
:100EB00063D06068002860D10120DCE700BF012119
:100EC00009046068884205D1E74800680843E6499C
:100ED000086027E005210904606888420ED1E248D5
:100EE0000068012189040843DF490860084600685A
:100EF000012109040843DC49086013E0DA4800686E
:100F0000012109048843D849086008460068012186
:100F100009040840009000BFD34800688900884356
:100F2000D149086000BF6068002813D0FFF71EFC9D
:100F3000054606E0FFF71AFC401B642801D9032090
:100F400099E7C9480068012149040840400C00287D
:100F5000F0D012E0FFF70AFC054606E0FFF706FCBA
:100F6000401B642801D9032085E7BF4800680121A0
:100F700049040840400C0028F0D1022120680840B4
:100F800002286CD1E66820203040002809D0B648FD
:100F9000006820210843B449086020213046884376
:100FA0000646042F04D00C2F34D10198002831D1EB
:100FB000AD480068042108408008002803D0002EB6
:100FC00001D1012057E7A84840681F210902884342
:100FD000216909020843A4494860084600680921BC
:100FE00088433043A0490860FFF7C8FE9E49C9689E
:100FF000F022114009099D4A515CC8409C49086093
:101000009C480068FFF71AFC0290029800283FD025
:10101000029830E7002E23D09348006809218843C6
:10102000304391490860FFF7A1FB054606E0FFF752
:101030009DFB401B022801D903201CE78A48006859
:101040000421084080080028F1D0874840681F210B
:10105000090288432169090208438349486017E06F
:1010600081480068400840007F490860FFF77EFB28
:10107000054606E0FFF77AFB401B022801D9032052
:10108000F9E6794800680421084080080028F1D179
:10109000102120680840102868D1002F37D17248ED
:1010A000006849010840400A002804D0A0690028CF
:1010B00001D10120DFE66C484068072149038843DD
:1010C000216A084368494860084640680002000AEF
:1010D000217F0906084364494860206A400B401C90
:1010E00001218140C8036049C968F0221140090903
:1010F0005E4A515CC8405E4908605E480068FFF780
:101100009DFB0290029800284BD00298B3E6A0699C
:1011100000282CD054480068FF210131084352496F
:101120000860FFF723FB054606E0FFF71FFB401BA7
:10113000022801D903209EE64B480068012149029C
:101140000840400A0028F0D047484068072149037A
:101150008843216A084344494860084640680002C1
:10116000000A217F090608433F49486019E03E48CC
:101170000068FF21013188433B490860FFF7F6FA18
:10118000054606E0FFF7F2FA401B022801D90320CA
:1011900071E635480068012149020840400A0028EC
:1011A000F0D1082120680840082839D1606900285A
:1011B0001BD02D4840300069012108432A494031A5
:1011C0000861FFF7D3FA054606E0FFF7CFFA401BA8
:1011D000022801D903204EE623484030006902214D
:1011E000084040080028F0D01AE01F48403000694D
:1011F000400840001C4940310861FFF7B7FA054636
:1012000006E0FFF7B3FA401B022801D9032032E6BB
:101210001548403000690221084040080028F0D1FC
:1012200004212068084004287BD1002000900E484B
:10123000806B89060840002806D10B48806B084364
:1012400009498863012000900B480068FF210131A3
:101250000840002820D10848006808430649086073
:10126000FFF784FA054610E000100240342E000813
:10127000480000204000002000700040FFF776FA90
:10128000401B642801D90320F5E587480068FF2149
:10129000013108400028F1D000BFFF210131A068D2
:1012A000884205D18148006908438049086130E0DF
:1012B000A06800280DD17D480069FF2101318843D5
:1012C0007A49086108460069091588437749086129
:1012D0001FE005210902A06888420DD1734800690A
:1012E000012189020843714908610846006989158E
:1012F00008436E4908610CE06C480069FF21013128
:1013000088436A49086108460069091588436749A6
:10131000086100BFA068002815D0FFF727FA05462E
:1013200008E031E0FFF722FA401B6149884201D909
:101330000320A0E55D480069012149020840400AF8
:101340000028EFD013E0FFF711FA054607E0FFF79A
:101350000DFA401B5649884201D903208BE55348BA
:101360000069012149020840400A0028EFD1009895
:10137000012808D14D484038806B01210907884376
:101380004A494039886300BF606A00284CD00C2F5E
:1013900069D0606A022848D1444840380068012179
:1013A00009068843414940390860FFF7DFF90546DF
:1013B00006E0FFF7DBF9401B022801D903205AE5BC
:1013C0003A4840380068012149060840400E00288C
:1013D000EFD1E16AA06A0843216B084333494039E1
:1013E000C968FD2212049143084330494039C8605E
:1013F000084600680121090608432C494039086065
:10140000FFF7B4F9054606E0FFF7B0F9401B0228E4
:1014100001D903202FE525484038006801214906FD
:101420000840400E0028EFD03CE0204840380068DB
:101430000121090688431D4940390860FFF796F9E4
:10144000054606E0FFF792F9401B022801D9032068
:1014500011E5164840380068012149060840400E51
:101460000028EFD11EE0606A012800D103E50F4893
:101470004038C06801900121090401980840A16A20
:1014800088420DD10F21890401980840E16A884201
:1014900006D10321890501980840216B884201D0BB
:1014A0000120E8E40020E6E4007000404010024023
:1014B0008813000070B504462546681E0949884215
:1014C00001D901200CE0681E074948610321081F6B
:1014D00001F042FC002004498861072008610020D7
:1014E00070BD0000FFFFFF0000E000E030B50246E5
:1014F0000B4600BF3820805C012801D1022030BD9E
:1015000001253820855400BF0225392085541068F4
:1015100044681068816870252046A843044618680E
:101520000443106844600125AD071068A84203D049
:101530000A4D1068A84207D180250846A8430146F5
:10154000586801431068816001253920855400BF27
:1015500000253820855400BF0020D0E70008014056
:1015600010B50446002C01D1012010BD3920005DCA
:10157000002805D1002138200155204600F018F838
:10158000022139200155211D206800F093FF01211F
:101590003E20015500BF3A2001553B2001553C201B
:1015A00001553D20015500BF392001550020DCE7E1
:1015B00010B50446012189072068884206D10D48EC
:1015C000806B012108430B49886311E00A492068B8
:1015D00088420DD10748406B042108430549486300
:1015E000002202211420FFF771F91420FFF760F99F
:1015F00010BD0000001002400008014001463920E3
:10160000405C012801D00120704702233920435457
:101610000868C068012318430B68D86001239B0742
:101620000868984203D00C4B086898420CD10868AF
:1016300080684207520F062A0CD008680068012310
:1016400018430B68186005E0086800680123184318
:101650000B6818600020D7E700080140F8B5044681
:101660000D460020009000BF3820005D012801D108
:101670000220F8BD01213820015500BF0221392088
:101680000155206886687721304688430646FF2149
:10169000090230468843064620688660286850283C
:1016A00034D00CDC202851D004DC00284CD0102889
:1016B00052D14AE030284AD040284DD13AE0602843
:1016C0002ED0702807D001210903401A02D0401AF9
:1016D00042D10DE043E0EB686A68A968206800F039
:1016E00028FF20688668772006432068866036E0F9
:1016F000EB686A68A968206800F01BFF20688068B2
:101700000121890308432168886028E0EA68696844
:10171000206800F0A9FF5021206800F018FF1EE0AB
:10172000EA686968206800F0B8FF6021206800F06E
:101730000EFF14E0EA686968206800F095FF402118
:10174000206800F004FF0AE000BF00BF00BF296866
:10175000206800F0FCFE02E00120009000BF00BF06
:1017600001213920015500BF00213820015500BF5B
:1017700000987EE7704710B5044620680069022192
:101780000840400800281CD02068C0680840400875
:10179000002816D0481F21680861012020762068A3
:1017A00080698007800F002803D02046FFF7E2FF02
:1017B00005E0204600F0CAF8204600F076F9002047
:1017C00020762068006904210840800800281DD088
:1017D0002068C06808408008002817D0C8432168E6
:1017E00008610220207620688069032109020840F0
:1017F000002803D02046FFF7BDFF05E0204600F09B
:10180000A5F8204600F051F90020207620680069F4
:1018100008210840C00800281CD02068C068084083
:10182000C008002816D0C84321680861042020762B
:101830002068C0698007800F002803D02046FFF78A
:1018400099FF05E0204600F081F8204600F02DF9D0
:101850000020207620680069102108400009002837
:101860001DD02068C06808400009002817D0C84370
:1018700021680861082020762068C06903210902D8
:101880000840002803D02046FFF774FF05E02046FB
:1018900000F05CF8204600F008F90020207620686F
:1018A0000069C007C00F01214840484000280CD003
:1018B0002068C068084048404840002805D0C81E3D
:1018C00021680861204600F043F920680069402142
:1018D0000840800900280BD02068C06808408009B3
:1018E000002805D0C84321680861204600F04AF965
:1018F00010BD000010B586B00446142101A8FEF703
:1019000062FC01218907206888421AD100BF0E4875
:10191000C06A012108430C49C8620846C06AC00772
:10192000C00F009000BF00BF081501900220029078
:101930000020039004900520059001A90007FEF700
:101940001BFE06B010BD0000001002407047F8B545
:1019500004460D461646002700BF3820005D0128CA
:1019600001D10220F8BD01213820015500BF002E11
:1019700006D0042E1BD0082E33D00C2E62D147E0A7
:101980002946206800F0EFFD20688069082108439F
:101990002168886120688069042188432168886102
:1019A00020688069E9680843216888614CE029461D
:1019B000206800F0F4FD206880690121C902084315
:1019C0002168886120688069012189028843216833
:1019D000886120688069E968090208432168886194
:1019E00032E02946206800F0FCFD2068C06908212B
:1019F00008432168C8612068C069042188432168C0
:101A0000C8612068C069E96808432168C8611BE0B3
:101A10002946206800F004FE2068C0690121C9023F
:101A200008432168C8612068C06901218902884390
:101A30002168C8612068C069E96809020843216813
:101A4000C86101E0012700BF00BF00BF00213820AE
:101A5000015500BF384685E710B50446002C01D17A
:101A6000012010BD3920005D002805D1002138205B
:101A70000155204600F018F8022139200155211D9A
:101A8000206800F017FD01213E20015500BF3A20DB
:101A900001553B2001553C2001553D20015500BF1B
:101AA000392001550020DCE77047704770B50446C7
:101AB0000D46002D02D13A20005D0BE0042D02D12D
:101AC0003B20005D06E0082D02D13C20005D01E0D6
:101AD0003D20005D012801D0012070BD002D03D103
:101AE00002213A2001550EE0042D03D102213B20B2
:101AF000015508E0082D03D102213C20015502E0E8
:101B000002213D20015501222946206800F000FDF8
:101B1000012189072068884203D00C492068884247
:101B20000CD1206880684607760F062E0CD02068FE
:101B30000068012108432168086005E0206800680A
:101B400001210843216808600020C6E70008014021
:101B500010B504460949206888420DD100F0A6FA64
:101B60000748007C012801D1FEF76CFB0448007F88
:101B7000012801D1FEF777FB10BD000000080140ED
:101B8000000000207047704770477047F0B585B07F
:101B900004462068C5692068066820688768EF48A1
:101BA00028400390039800280FD1202028400028C7
:101BB0000BD020203040002807D0A06E002802D093
:101BC0002046A16E884705B0F0BD039800287DD05F
:101BD000F807C00F002803D1E14830400028F6D0B4
:101BE000E807C00F00280DD0FF200130304000284A
:101BF00008D001202168086284200059012108438F
:101C0000842108510220284000280CD0F807C00F7A
:101C1000002808D00220216808628420005904218D
:101C20000843842108510420284000280CD0F807DC
:101C3000C00F002808D004202168086284200059C1
:101C4000022108438421085108202840002810D090
:101C500020203040002803D1F807C00F002808D00A
:101C60000820216808628420005908210843842143
:101C700008510120C002284000280ED00120800613
:101C80003040002809D00120C00221680862842069
:101C9000005920210843842108518420005900283C
:101CA00054D020202840002809D02020304000288F
:101CB00005D0A06E002802D02046A16E884784205F
:101CC0000059029020688068402100E03FE0084011
:101CD000402804D0282102980840002830D020460F
:101CE00000F0F8FD2068806840210840402823D19A
:101CF00000BF01F06DF80190012001F07BF8206831
:101D000080684021884321688860019801F072F85A
:101D100000BF606F00280BD09248616F8863606FCE
:101D2000FEF70DFB002811D0606F816B88470DE036
:101D30002046FFF72AFF09E02046FFF726FF05E0CF
:101D40002046FFF722FF0021842001513BE7206E4F
:101D500001287DD110202840002879D01020304063
:101D60000028FAD01020216808622068806840218D
:101D70000840402873D1606F0068406880B20190CD
:101D8000019800286AD05820015B0198814265DDE6
:101D90005A2101980853606F0068006820210840AC
:101DA00000284CD100BF01F013F80090012001F091
:101DB00021F820680068FF2101318843216808600C
:101DC000009801F017F800BF00BF01F001F8009083
:101DD000012001F00FF82068806840084000216869
:101DE0008860009801F006F800BF00BF00F0F0FF27
:101DF0000090012000F0FEFF2068806840218843A9
:101E000021688860009800F0F5FF00BF2021802045
:101E100001510020206600BF00F0DAFF0090012091
:101E200000F0E8FF206800681021884321680860FE
:101E3000009800F0DFFF00BF606FFEF754FA022049
:101E400060665820025B5A20005B101A81B202E0E3
:101E500054E004E002E02046FFF795FEB3E6582088
:101E6000015B5A20005B081A80B201905A20005B87
:101E7000002842D0019800283FD000BF00F0A8FF02
:101E80000090012000F0B6FF20680068FF2121319A
:101E9000884321680860009800F0ACFF00BF00BFD5
:101EA00000F096FF0090012000F0A4FF20688068F9
:101EB0004008400021688860009800F09BFF00BF48
:101EC00020218020015100202066A06600BF00F084
:101ED0007FFF0090012000F08DFF20680068102136
:101EE000884321680860009800F084FF00BF02204A
:101EF000606620460199FFF746FE64E60120000572
:101F0000284000280CD0012080053840002807D048
:101F100001200005216808622046FFF735FE52E6E1
:101F20008020284000280AD080203040002806D099
:101F3000E06E002802D02046E16E884743E640204C
:101F40002840002807D040203040002803D02046F9
:101F500000F000FD37E600BF35E600000F08000086
:101F600020010004BD28000810B586B004461421E5
:101F700001A8FEF728F926492068884246D125485D
:101F8000806B0121890408432249886300BF084609
:101F9000C06A012108431F49C8620846C06AC007D9
:101FA000C00F009000BF00BF0220019012200290DD
:101FB00001200390032004900620059001A905202C
:101FC0000007FEF7D9FA1448144908600520486054
:101FD000002112488160C1608021016100214161BE
:101FE0008161C1610162FEF75DFA002801D0FEF750
:101FF00077F900BF09486067846200BF002211467C
:102000001D20FEF763FC1D20FEF752FC06B010BD3C
:10201000004800400010024030000240D400002080
:10202000704700BFFEE710B50446A068804700284F
:1020300001D1A07001E00120A07010BD70B5044670
:102040000D4629462046FEF781FB70BD10B51021D4
:1020500005200007FFF7F2FF10BD10B50121052094
:102060000007FFF7EBFF10BD10B50121490204483E
:10207000FFF7E4FF002801D1012010BD0020FCE79C
:102080000004005010B5012189030248FFF7D6FF74
:1020900010BD00000008005010B50121C90302481E
:1020A000FFF7CCFF10BD00000008005070B5002500
:1020B00047E00C206843244944182046FFF7B3FF4B
:1020C000E078002806D0012810D0022819D0032873
:1020D00034D12BE0A078002804D10120E07000204A
:1020E000207102E00020E070207128E0A078002834
:1020F00004D10220E0700020207101E00020E07097
:102100001DE0A07800280BD12088462804DB0020A1
:1021100020800320E07008E02088401C208004E03C
:1021200000202080E0700120207108E0A0780028C5
:1021300003D00020E0700220207100E000BF00BF4B
:102140006D1C052DB5DB70BD0000002010B50248E8
:10215000FFF71CFD10BD00004C00002008B500BFBB
:102160000A48006B01210843084908630846006BD0
:10217000C007C00F009000BF00BF002211460A2018
:10218000FEF7A4FB0A20FEF793FB08BD00100240F7
:1021900000B587B0142102A8FEF715F800BF374834
:1021A000C06A022108433549C8620846C06A022154
:1021B0000840019000BF00BF00BF3048C06A042142
:1021C00008432E49C8620846C06A042108400190AD
:1021D00000BF00BF00BF2948C06A0121084327494A
:1021E000C8620846C06AC007C00F019000BF00BFA8
:1021F00000220521C9014805FEF7B1FA012040027D
:1022000002901120000403900020049002A91C48B1
:10221000FEF7B2F90320800302902120000403900E
:102220000120049002A91748FEF7A6F901200290A8
:102230001120400403900020049002A9052000070B
:10224000FEF79AF91020029021200004039000204C
:10225000049002A905200007FEF78EF90520C001B1
:1022600002900120039000200490059002A905200F
:102270000007FEF781F907B000BD00000010024022
:10228000000400500008005010B50E480E490860C8
:10229000E12040024860C1040B4881600021C16018
:1022A0000161042141610021816101620020064930
:1022B00048620846FEF760FA002801D0FEF710F8E1
:1022C00010BD0000004800404C00002000B587B061
:1022D000002003900490059006900190029016480B
:1022E000164908601620486000211448816014498E
:1022F000C1600021016180214161FFF731F90028AF
:1023000001D0FDF7EDFF01200003039003A90B4866
:10231000FFF7A4F9002801D0FDF7E2FF00200190AB
:10232000029001A90548FFF7E1F8002801D0FDF768
:10233000D7FF07B000BD0000000801405C0100208D
:10234000CF07000000B58BB00020079008900990DF
:102350000A9005900690019002900390049001204D
:1023600080072349086017204860002120488160C9
:102370002049C1600021016180214161FFF7F0F82F
:10238000002801D0FDF7ACFF01200003079007A94A
:102390001748FFF763F9002801D0FDF7A1FF1448A3
:1023A000FFF75AFB002801D0FDF79AFF00200590A7
:1023B000069005A90E48FFF799F8002801D0FDF70F
:1023C0008FFF702001907D20C000029002200390BA
:1023D00000200490082201A90548FFF7B8FA002858
:1023E00001D0FDF77DFF0248FFF784FA0BB000BD76
:1023F0001C010020E703000000BFFEE770477047A4
:1024000010B5FEF7F9F910BD00B599B034210CA84C
:10241000FDF7D9FE142107A8FDF7D5FE182101A864
:10242000FDF7D1FE1D4800680321C9028843012140
:10243000C90240181949086002200C9001200F9031
:10244000102010900220159000211691179141053F
:1024500018910CA8FEF70AFD002801D0FDF740FFF7
:102460000F20079003200890002009900A900B90FD
:10247000012107A8FEF73EFB002801D0FDF730FF41
:10248000042001900020049001A8FEF729FA0028FA
:1024900001D0FDF725FF19B000BD0000007000401D
:1024A0007047000010B50248FFF765F910BD000045
:1024B0005C01002010B5026801239B07984202D0FE
:1024C000124B984205D170241346A3431A464B6819
:1024D0001A4301239B07984202D00C4B984206D125
:1024E000032424021346A3431A46CB681A438024CC
:1024F0001346A3430C6923431A4602608B68C362E8
:102500000B6883620123436110BD00000008014095
:1025100070B5CD06ED0E0124AC402346046A9C4301
:102520000462046ACE06F60E1546B5402C430462DA
:1025300070BD70B50C468168FF2636020D46B54366
:1025400029461D02154325432943816070BD10B5FE
:102550000A46816870240B46A34319460723134398
:102560001943816010BD70B5056A6D086D00056284
:10257000036A4468826970261546B5432A46920864
:1025800092000D682A4302261D46B5432B468D68EE
:102590002B43446082614D684563036270BD70B532
:1025A000056A1026B5430562036A446882690726F6
:1025B00036031546B5432A46032636021546B5436B
:1025C0002A460D682D022A4320261D46B5432B4678
:1025D0008D682D012B43446082614D6885630362E1
:1025E00070BD70B5056AFF260136B5430562036A02
:1025F0004468C26970261546B5432A46920892007F
:102600000D682A43012676021D46B5432B468D6888
:102610002D022B434460C2614D68C563036270BDE7
:1026200070B5056A01263603B5430562036A44683E
:10263000C269072636031546B5432A4603263602E5
:102640001546B5432A460D682D022A430126760316
:102650001D46B5432B468D682D032B434460C26154
:102660004D680564036270BD70B50B461446026A7E
:10267000056A6D086D0005628169F0260D46B54357
:102680002946250129430A261546B5432A461546FB
:102690001D432A468161026270BD70B50B46144627
:1026A000056A1026B54305628169026A0F26360362
:1026B0000D46B543294625032943A0261546B543B3
:1026C0002A461D012A438161026270BD818CC907BF
:1026D000C90F002908D001684968012252049143BA
:1026E000826A1143026851600222416A1140022944
:1026F00007D101684968D2039143C26A1143026855
:1027000051600422416A1140042907D101684968D7
:1027100012049143026B1143026851600822416A1E
:102720001140082907D10168496812039143426B9F
:102730001143026851601022416A1140102907D1EB
:102740000168896812029143826B114302689160AB
:102750002022416A1140202907D1016889681202AC
:102760009143C26B1143026891604022416A11405B
:10277000402915D10168496892039143026C1143C5
:102780000268516001221205016C914208D1016872
:102790004968032252059143426C1143026851601B
:1027A0008022416A1140802907D1016849681203DB
:1027B0009143826C1143026851607047F8B504463A
:1027C000002184200151FDF7D1FF054620680068F3
:1027D00008210840082823D137482B4600228904C5
:1027E0000090204600F03CFA002819D000BF00F00D
:1027F000EFFA0646012000F0FDFA2068006880210B
:10280000884321680860304600F0F4FA00BF2020B9
:10281000E06700BF00217820015500BF0320F8BD0C
:102820002068006804210840042836D122482B463D
:10283000002209050090204600F012FA00282CD052
:1028400000BF00F0C5FA0646012000F0D3FA206868
:102850000068FF212131884321680860304600F07C
:10286000C9FA00BF00BF00F0B3FA0646012000F02D
:10287000C1FA2068806840084000216888603046BE
:1028800000F0B8FA00BF20218020015100BF0021D4
:102890007820015500BF0320C1E72020E0672021F8
:1028A0008020015100202066606600BF0021782052
:1028B000015500BF0020B2E7FFFFFF0170B50546DC
:1028C000AC6A00215A200153522001532046FFF7E1
:1028D0005CF970BD70B5044600BF00F079FA05469A
:1028E000012000F087FA20680068FF212131884329
:1028F00021680860284600F07DFA00BF00BF00F0A4
:1029000067FA0546012000F075FA206880684008E3
:10291000400021688860284600F06CFA00BF206EF5
:10292000012810D100BF00F053FA0546012000F045
:1029300061FA2068006810218843216808602846F1
:1029400000F058FA00BF20218020015100202066AD
:10295000A06670BD70B5044600BF00F039FA0546A8
:10296000012000F047FA2068006840218843216870
:102970000860284600F03EFA00BF2020E0670020F3
:10298000E0662046FFF74CFB70BD0000F0B587B055
:10299000044600200390AA492068884200D100E044
:1029A00000BF2169A068084361690843E1690843E1
:1029B000059020680068A3490840059908432168EC
:1029C000086020684068032109038843E1680843E0
:1029D00021684860A069059099492068884203D021
:1029E000206A059908430590206880680B21090238
:1029F0008843059908432168886000BF9249206890
:102A0000884217D19148C0680C210840002806D0A0
:102A1000042808D0082804D00C2808D105E0002696
:102A200007E0022605E0042603E0082601E0102660
:102A300000BF1FE08249206888421AD18348C068DD
:102A4000032189020840002808D001218902401A88
:102A500008D0401A04D0401A08D105E0002607E04B
:102A6000022605E0042603E0082601E0102600BF48
:102A700000E0102600BF72492068884251D1002E24
:102A800006D0022E08D0042E12D0082E17D113E043
:102A9000FEF750F9054616E06C48403800681021F2
:102AA00008400009002801D0694D00E0694D0AE0A6
:102AB000FEF764F9054606E00125ED0303E0002575
:102AC0000120039000BF00BF002D0AD060684100C4
:102AD0004018A84203D860680003A84202D201202F
:102AE0000390A7E0606802902846FF21013100F0C2
:102AF0000DF9626852080023801859410191009035
:102B0000029AFDF729FB0746032109028F4205D3EC
:102B10005148874202D82068C7608BE001200390AB
:102B200088E00121C903E069884247D1330000F001
:102B300005F909060A0E211A2121211E2100FEF79E
:102B4000F9F805461AE0FEF707F9054616E03F4892
:102B500040380068102108400009002801D03C4D91
:102B600000E03C4D0AE0FEF709F9054606E00125C4
:102B7000ED0303E000250120039000BF00BF002DFE
:102B800058D06A0063685B08D0186168FDF7CEFA18
:102B90000746102F0FD3314887420CD82F480F38E3
:102BA000384004903807400F049908430490049873
:102BB0002168C8603EE0012003903BE0330000F054
:102BC000BDF809060A0E211A2121211E2100FEF757
:102BD000B1F805461AE0FEF7BFF8054616E01B48B7
:102BE00040380068102108400009002801D0184D25
:102BF00000E0184D0AE0FEF7C1F8054606E00125A1
:102C0000ED0303E000250120039000BF00BF002D6D
:102C100010D061684A085019FDF788FA0746102F4E
:102C200006D30E48874203D8B8B22168C86001E0D5
:102C3000012003900020A066E066039807B0F0BD75
:102C400000480040F369FFEF00440040401002409C
:102C500000093D000024F400FFFF0F00FFFF00000B
:102C6000FFB581B004460D4617460A9E42E0701C2F
:102C700000283FD0FDF77AFD0499401AB04201D8F0
:102C8000002E02D1032005B0F0BD206800680421A9
:102C9000084000282ED02068C06908210840C008DC
:102CA00000280FD00820216808622046FFF712FE96
:102CB00008218420015100BF00217820015500BF68
:102CC0000120E0E72068C0690121C9020840C00A6C
:102CD00000280FD00846216808622046FFF7FAFD59
:102CE00020218420015100BF00217820015500BF20
:102CF0000320C8E72068C0692840A84201D101200C
:102D000000E00020B842B2D00020BCE7F8B582B2A3
:102D10008BB2040C0D0C10465843002126465E432E
:102D2000370C36048019794116466E43370C360449
:102D30008019794126466E438919F8BD30B474462E
:102D4000641E2578641CAB4204D3635D5B00E3180A
:102D500030BC18471D46F8E710B5002819DB1A4AA1
:102D600003231B02D21883089B00D2588307DC0E72
:102D7000FF23A3409A438B071B0E8407E40EA34056
:102D80001A43114B032424021B198408A4001A516E
:102D900018E00E4A03071B0F083B9B089B00D25804
:102DA0008307DC0EFF23A3409A438B071B0E840787
:102DB000E40EA3401A43054B0407240F083CA40863
:102DC000A4001A5110BD000000E100E01CED00E07D
:102DD000EFF31080704702E008C8121F08C1002AF4
:102DE000FAD170477047002001E001C1121F002A8C
:102DF000FBD1704780F3108870470000FDF708FD95
:102E0000FFF702FBFFF7C4F9FFF7A8F9FFF79AFAFB
:102E1000FFF73AFAFFF75AFA0448FEF7EFFB0821EA
:102E20000348FEF743FE00BFFEE700005C01002000
:102E30001C0100200000000000000000010203044B
:102E40000607080900000000010203040304060845
:102E50000C10182030000000782E00080000002020
:102E60004C000000D62D0008C42E00084C000020A5
:102E700054050000E62D00080000010000000000DD
:102E80004D20000800000100000000005B20000849
:102E9000000001000000000069200008000001009F
:102EA0000000000085200008000001000000000074
:102EB000992000080000000004000000010000004C
:042EC00000002000EE
:04000005080000C12E
:00000001FF
